:100000000C946E010C9496010C9496010C9496013C
:100010000C9496010C9496010C9496010C94960104
:100020000C9496010C9496010C9441080C94C80809
:100030000C9496010C9496010C9496010C949601E4
:100040000C9496010C9496010C9496010C949601D4
:100050000C9496010C9496010C9496010C94BD0599
:100060000C9496010C9496010C9496010C949601B4
:100070000C9496010C9496010C9496010C949601A4
:100080000C9496010C9496010C9496010C94960194
:100090000C9496010C9496010C9496010C94960184
:1000A0000C9496010C9496010C94960100000000AB
:1000B000240027002A002D00300000000000250049
:1000C00028002B002E003100000000002300260035
:1000D00029002C002F000404040404030405020278
:1000E00002020403020202020606060606060404D1
:1000F00002020204040802011040804010204080E7
:10010000408008020401804020100201108010206D
:1001100040400000000200080E0000030401000B34
:100120000000070605040100080A0B0C0D09080B66
:1001300000020202010009040000010202000005A1
:1001400024001001052401010104240206052406EF
:1001500000010705810310004009040100020A00A4
:10016000000007050202400000070583024000006E
:1001700004030904220355005300420020004900F3
:100180004F00200042006F006100720064002000F8
:10019000200020002000180353007000610072004E
:1001A0006B00460075006E00200020002000120148
:1001B0000002000000404F1B0492000101020001F8
:1001C00012010002020000404F1B049200010102D4
:1001D000000100C18081C105010902A1010901A13D
:1001E00000850105091901290315002501950375ED
:1001F0000181029501750581030501093009310965
:10020000381581257F750895038106C0C005010951
:1002100006A1018502050719E029E71500250175EA
:1002200001950881029501750881039506750815E9
:100230000025650507190029658100C00904020031
:1002400001030000000921010100012265000705EA
:10025000840340000100000000000000002A2B2859
:10026000000000000000000000000000000000008E
:1002700000000000002C9EB4A0A1A2A434A6A7A553
:10028000AE362D3738271E1F20212223242526B3E2
:1002900033B62EB7B89F8485868788898A8B8C8DE4
:1002A0008E8F909192939495969798999A9B9C9DF6
:1002B0002F3130A3AD350405060708090A0B0C0DD4
:1002C0000E0F101112131415161718191A1B1C1DD6
:1002D000AFB1B0B50000F2047D074B0A11241FBE78
:1002E000CFEFDAE0DEBFCDBF11E0A0E0B1E0EAE39E
:1002F000F7E102C005900D92A634B107D9F711E0DD
:10030000A6E4B1E001C01D92A73BB107E1F712E0FE
:10031000CCEDD2E004C02297FE010E94970BC63DAF
:10032000D107C9F70E9494040C949B0B0C94000015
:10033000EF92FF920F931F937C010AE811E0C8012E
:1003400065E40E947A03C801B7014AE050E00E94C8
:1003500062041F910F91FF90EF900895FF920F9309
:100360001F93F82E282F332727FD30952056304035
:10037000C9010197409718F081E090E035C06F33D4
:10038000E1F060342CF4603381F0613359F510C032
:10039000693419F06F3431F503C0822F60E002C078
:1003A000822F61E00E94500221C0822F60E002C0D3
:1003B000822F61E00E94ED0219C0822F0E9420036B
:1003C0008C018AE891E06F2D0E947A03012B19F4C9
:1003D00060E071E002C062E071E08AE891E00E94B2
:1003E000810404C082E090E00E9498011F910F9167
:1003F000FF9008950F931F938AE891E00E94A8044C
:100400000297D4F18AE891E00E94CF04182F8D3032
:1004100099F18A3089F181548A31E8F48AE891E0CF
:100420000E94CF04082F173449F0163509F58AE8E1
:1004300091E064E071E00E9481041EC08AE891E0CE
:100440000E94A804892BD1F38AE891E00E94CF048E
:10045000682F802F0AC0812F81568A3148F48AE89C
:1004600091E00E94CF04682F812F0E94AE0104C04A
:1004700082E090E00E9498011F910F9108951F93D0
:1004800011E0812F60E00E9450021F5F1131C9F717
:100490008AE891E060E072EC0E94A7041F91089541
:1004A000CF93DF93482F50E0CA018C509F4FFC013F
:1004B00034914A525F4FFA018491882369F190E0A8
:1004C000880F991FFC01E455FF4FA591B491FC01E1
:1004D000E654FF4FC591D491662351F42FB7F89499
:1004E0008C91932F909589238C93888189230BC0BD
:1004F000623061F42FB7F8948C91932F90958923F3
:100500008C938881832B88832FBF06C09FB7F89474
:100510008C91832B8C939FBFDF91CF91089587306F
:10052000C1F1883080F48330F9F0843030F48130C8
:1005300029F1823009F050C024C08430C9F08630DF
:1005400009F04AC022C08A3091F18B3030F48830F3
:1005500031F1893009F040C026C08C3091F18C30E7
:1005600060F18E30C9F533C0809180008F7703C071
:10057000809180008F7D80938000089584B58F776F
:1005800002C084B58F7D84BD08958091B0008F77BF
:1005900003C08091B0008F7D8093B000089580915A
:1005A00090008F7707C0809190008F7D03C080916D
:1005B0009000877F8093900008958091C0008F778E
:1005C00003C08091C0008F7D8093C000089580910A
:1005D000C200877F8093C2000895FF920F931F93FC
:1005E000F62E482F50E0CA018E5E9E4FFC012491EA
:1005F000CA018C509F4FFC0114914A525F4FFA017F
:1006000004910023C9F0222319F0822F0E948F0247
:10061000E02FF0E0EE0FFF1FE654FF4FA591B491DD
:100620009FB7F894FF2021F48C911095812302C08C
:100630008C91812B8C939FBF1F910F91FF900895F8
:100640000F931F93482F50E0CA018E5E9E4FFC010E
:100650002491CA018C509F4FFC0104914A525F4F74
:10066000FA011491112319F420E030E015C022237F
:1006700019F0822F0E948F02812F90E0880F991F1E
:1006800088539F4FFC01A591B4918C9120E030E0FC
:10069000802311F021E030E0C9011F910F910895EE
:1006A000CF92DF92EF92FF920F931F93CF93DF933E
:1006B0007C016B018A01C0E0D0E00FC0D6016D91D2
:1006C0006D01D701ED91FC910190F081E02DC70102
:1006D0000995C80FD91F015010400115110571F778
:1006E000CE01DF91CF911F910F91FF90EF90DF909E
:1006F000CF900895DC01ED91FC910190F081E02D07
:1007000009950895EF92FF920F931F938C01DC01DE
:10071000ED91FC910190F081E02D6DE009957C0157
:10072000D801ED91FC910190F081E02DC8016AE0C3
:1007300009959C012E0D3F1DC9011F910F91FF903E
:10074000EF900895CF93DF93EC016115710519F4D3
:1007500020E030E00FC0DB010D900020E9F7119799
:10076000A61BB70BE881F9810280F381E02DAD0172
:1007700009959C01C901DF91CF9108954F925F9235
:100780007F928F929F92AF92BF92CF92DF92EF9221
:10079000FF920F931F93DF93CF93CDB7DEB7A1974F
:1007A0000FB6F894DEBF0FBECDBF2C01742ECB0167
:1007B000223008F42AE019A231E2C32ED12CCC0E4B
:1007C000DD1E822E9924AA24BB24672D752FA50136
:1007D00094010E94730B79018A01C801B701A50138
:1007E00094010E94540B472D461B0894C108D10860
:1007F0004A3014F4405D01C0495CF6014083E114C5
:10080000F1040105110521F07E2C5F2DC801DDCF1B
:10081000C201B6010E94A203A1960FB6F894DEBFF2
:100820000FBECDBFCF91DF911F910F91FF90EF9041
:10083000DF90CF90BF90AF909F908F907F905F9010
:100840004F900895CF92DF92EF92FF920F931F93F4
:10085000CF93DF93EC016A017B012115310541F44F
:10086000E881F9810190F081E02D642F09951FC086
:100870002A303105D1F477FF17C0E881F981019062
:10088000F081E02D6DE209958C0144275527BA01CE
:100890004C195D096E097F09CE012AE00E94BE0352
:1008A0009801280F391F04C02AE00E94BE039C0152
:1008B000C901DF91CF911F910F91FF90EF90DF90D1
:1008C000CF900895CF92DF92EF92FF920F931F93F4
:1008D0006C017B019A010027F7FC0095102FB801ED
:1008E000A7010E9422048C01C6010E948203080F06
:1008F000191FC8011F910F91FF90EF90DF90CF90CB
:100900000895EF92FF920F931F937C010E94A20320
:100910008C01C7010E948203080F191FC8011F9193
:100920000F91FF90EF900895CF93DF930E946A0696
:1009300089EA91E00E947E070E943F02C0E0D0E079
:100940000E94FA012097E1F30E940000F9CF089578
:1009500020918601309187018091880190918901D1
:10096000281B390B2F733070C9010895209186011F
:10097000309187018091880190918901281739076A
:1009800019F42FEF3FEF09C0E0918801F091890140
:10099000EA5BFE4F8081282F30E0C9010895209145
:1009A00086013091870180918801909189012817F3
:1009B000390719F42FEF3FEF13C0E0918801F09150
:1009C0008901EA5BFE4F2081809188019091890125
:1009D00001968F739070909389018093880130E025
:1009E000C901089510928D0110928C0188EE93E058
:1009F000A0E0B0E080938E0190938F01A0939001CE
:100A0000B093910189E291E090938B0180938A01E8
:100A100008950F931F93DF93CF930F92CDB7DEB757
:100A20008C01698380912201882369F083E0BE01F3
:100A30006F5F7F4F41E050E00E949C071816190637
:100A400014F49C0107C081E090E0F8019383828355
:100A500020E030E0C9010F90CF91DF911F910F91FD
:100A6000089583E00E9473070895CF93DF9312C027
:100A700082E00E94FE062FEF8F3F9207C9F0E091BF
:100A80008601F0918701EA5BFE4F8083D093870156
:100A9000C0938601C0918601D09187012196CF73C2
:100AA000D0708091880190918901C817D90701F70A
:100AB000DF91CF910895FC0180818E5F808380E873
:100AC0006EE271E042E450E00E9417070895FC01D5
:100AD00081819081913A59F4813209F04CC080E0D3
:100AE0006BE171E047E050E00E94170742C091328D
:100AF00009F041C0803239F48BE191E067E070E0A9
:100B00000E945B0736C0823209F035C08281809333
:100B1000220180911B0190911C01A0911D01B091B7
:100B20001E01805B9440A040B04019F580912201E5
:100B300080FD12C087E797E7909301088093000833
:100B40002BE088E190E00FB6F894A89580936000C0
:100B50000FBE209360000DC088E10FB6F89480931B
:100B60006000109260000FBEA895109201081092CC
:100B7000000881E0089580E008951F920F920FB65B
:100B80000F9211242F933F934F935F936F937F9313
:100B90008F939F93AF93BF9320919C0130919D01C0
:100BA00040919E0150919F017091A001DA01C9010D
:100BB0000296A11DB11D672F6A5F6D3730F06D572A
:100BC000DA01C9010396A11DB11D6093A0018093B4
:100BD0009C0190939D01A0939E01B0939F018091F1
:100BE000980190919901A0919A01B0919B01019671
:100BF000A11DB11D8093980190939901A0939A0132
:100C0000B0939B01BF91AF919F918F917F916F9115
:100C10005F914F913F912F910F900FBE0F901F90BA
:100C200018959B01AC017FB7F89480919801909141
:100C30009901A0919A01B0919B0166B5A89B05C04E
:100C40006F3F19F00196A11DB11D7FBFBA2FA92FCB
:100C5000982F8827860F911DA11DB11D63E0880F75
:100C6000991FAA1FBB1F6A95D1F7BC012DC0FFB702
:100C7000F8948091980190919901A0919A01B09176
:100C80009B01E6B5A89B05C0EF3F19F00196A11D99
:100C9000B11DFFBFBA2FA92F982F88278E0F911D46
:100CA000A11DB11DE3E0880F991FAA1FBB1FEA9584
:100CB000D1F7861B970B885E9340C8F221503040D5
:100CC0004040504068517C4F211531054105510588
:100CD00071F60895789484B5826084BD84B581608E
:100CE00084BD85B5826085BD85B5816085BDEEE634
:100CF000F0E0808181608083E1E8F0E01082808113
:100D000082608083808181608083E0E8F0E0808180
:100D100081608083E1EBF0E0808184608083E0EBA0
:100D2000F0E0808181608083E1E9F0E08081826091
:100D30008083808181608083E0E9F0E08081816050
:100D40008083E1ECF0E08081846080838081826038
:100D50008083808181608083E3ECF0E0808181602A
:100D60008083E0ECF0E0808182608083E2ECF0E060
:100D7000808181608083EAE7F0E080818460808305
:100D800080818260808380818160808380818068AF
:100D900080830895282F8091A3018823C1F057FFF5
:100DA0001AC015C028989093A2018091F1008193F8
:100DB000E217F307B9F74115510539F08091F200B8
:100DC000882319F48BE68093E800AFBF02C04FEF91
:100DD0005FEFCA010895AFB7F89427702093E90038
:100DE0008091F200282F30E0241735070CF4A90178
:100DF000FB019B01240F311D94E6DACFDF93CF93E3
:100E00000F92CDB7DEB7BE016F5F7F4F41E050E07C
:100E10000E94CA06019719F02FEF3FEF03C08981A6
:100E2000282F30E0C9010F90CF91DF910895FF92F4
:100E30000F931F93F82E142F052F4091A601509168
:100E4000A701212F302FC901DC01FB016EEF29C062
:100E5000F7FE02C0949101C090812091A4013091CD
:100E6000A50124173507ACF48091E8008570E1F303
:100E70008091E80082FF03C02FEF3FEF17C09093EF
:100E8000F100C90101968F739070892B11F4609362
:100E9000E8002F5F3F4F3093A5012093A4011197E5
:100EA00031961097A9F6812F902F9C01C9011F91AF
:100EB0000F91FF9008959C018091E80082FFFCCF84
:100EC000F901260F311D03C08091F1008193E217D3
:100ED000F307D1F7289884E68093A2018BEF8093E3
:100EE000E800CB0108958093E9008091F200882307
:100EF00019F08AE38093E800089508951092A30101
:100F000081E08093D70080EA8093D80082E089BD99
:100F100009B400FEFDCF61E070E080E090E00E9447
:100F2000110680E98093D8008CE08093E200109253
:100F3000E000559A209A08955F926F927F928F9267
:100F40009F92AF92BF92CF92DF92EF92FF920F9358
:100F50001F93CF93DF93E82E842E752E8091A301EB
:100F6000882371F18B01242F352FC901EC017AEF11
:100F7000F72E67E0962E9E2050E4552E8E2D90E0A1
:100F800040E2A42EB12CA822B9223AE3632E20E439
:100F9000C22ED12CC822D92258C09FB7F894909263
:100FA000E9008091E80085FD02C020E004C0809146
:100FB000F200252D281B9FBF222361F4FA9419F417
:100FC0002FEF3FEF4DC061E070E080E090E00E94C5
:100FD00011063BC0822F90E0C817D9070CF42C2FC4
:100FE000C21BD1094FB7F8949092E900A114B10443
:100FF00021F406C01092F10021502223D9F719C024
:10100000E7FC03C0F801922F10C0C801322F06C0C0
:10101000FC010196E491E093F10031503323C1F7D4
:1010200006C081918093F10091509923D1F7020F6E
:10103000111D8091E80085FF05C0209729F4C11497
:10104000D10411F06092E8004FBF209709F0A5CFBE
:101050005D9884E68093A101282D372DC9019C015C
:10106000C901DF91CF911F910F91FF90EF90DF9019
:10107000CF90BF90AF909F908F907F906F905F9038
:1010800008951F920F920FB60F9211242F933F9342
:101090004F935F936F937F938F939F93AF93BF9380
:1010A000EF93FF938091E1001092E100982F83FF6E
:1010B0000FC01092E90081E08093EB001092EC00E9
:1010C00082E38093ED001092A30188E08093F0000A
:1010D00092FF34C083E08093E9008091F20088237E
:1010E00019F08AE38093E8008FB7F89492E0909328
:1010F000E9009091F2008FBF992321F08AE891E0F6
:101100000E9435058091A101882351F08091A101B1
:1011100081508093A1018091A101882309F45D9AF7
:101120008091A201882351F08091A2018150809387
:10113000A2018091A201882309F4289AFF91EF91DE
:10114000BF91AF919F918F917F916F915F914F91DF
:101150003F912F910F900FBE0F901F9018950F93F6
:101160001F93DF93CF930F92CDB7DEB719828E0115
:101170000F5F1F4FC8010E945B05C8010E94480B0A
:10118000898190E00F90CF91DF911F910F91089589
:101190001F920F920FB60F921124EF92FF921F939E
:1011A0002F933F934F935F936F937F938F939F936F
:1011B000AF93BF93EF93FF93DF93CF93CDB7DEB79A
:1011C0006197DEBFCDBF1092E9008091E80083FFF8
:1011D0000FC1FE0131969E01275F3F4F03C08091F2
:1011E000F1008193E217F307D1F7289884E6809302
:1011F000A20182EF8093E800998197FF05C080915A
:10120000E80080FFFCCF03C08EEF8093E800292F19
:1012100030E0C90180769070892B09F0C2C08A81C4
:10122000882329F41092F1001092F100D6C0813089
:1012300009F4D3C0833009F4D0C0853049F48091DB
:10124000E80080FFFCCF8B8180688093E300C5C0FD
:10125000863009F07CC01C81EF80F8841230C1F523
:101260001092E9001092A5011092A4011092A7011A
:101270001092A6010E94AF0899E0FE013996DF01A5
:10128000292F1D922A95E9F799871A8791E09E8761
:1012900090E8988B9AEF998B2091A4013091A50149
:1012A000275F3F4F3C872B878D871092E900109274
:1012B000A5011092A401F092A701E092A60180E09E
:1012C000BF0149E050E00E9417070E94AF0885C0A7
:1012D0001092E9001092A5011092A401F092A701CA
:1012E000E092A601123241F482E290E00E94400BAB
:1012F000892B09F476C071C0113079F488E0E816C2
:10130000F10419F481E08093A8018091A801882359
:1013100009F06BC0EEEAF1E013C0133009F061C0D0
:101320008B81882319F4E0E7F1E00AC0823019F4D8
:10133000E4E7F1E005C0813009F053C0E6E9F1E0EF
:10134000449180E8BF0150E00E94170746C08730F3
:1013500009F447C0883021F481E08093F1003DC05A
:101360008930D9F523703070232BD9F5E3EDF1E006
:1013700091E031E026E39093E9003093EB00849113
:101380008093EC002093ED009F5F3196953099F7A4
:101390008EE78093EA001092EA008B818093A3018C
:1013A0001CC08F8198851092E9001092A5011092BF
:1013B000A4019093A7018093A6018D81882329F42D
:1013C000CE0101960E94670506C0823051F4CE011D
:1013D00001960E94110A882321F08EEF8093E80085
:1013E00007C081E28093EB0003C0E0ECF1E0A8CFFE
:1013F0006196DEBFCDBFCF91DF91FF91EF91BF919D
:10140000AF919F918F917F916F915F914F913F919C
:101410002F911F91FF90EF900F900FBE0F901F9094
:101420001895FC0191818081813A31F4913089F0E5
:1014300080E0933089F40DC0813269F49B3021F44F
:1014400082818093230105C09A3029F482818093A0
:10145000240181E0089580E00895EF92FF920F93B8
:101460001F938C01E62EDC01ED91FC910480F58147
:10147000E02D0995F82ED801ED91FC910680F781B9
:10148000E02DC8016E2D09958F2D90E01F910F91D1
:10149000FF90EF9008951092AA011092AE01109261
:1014A000AD018BE391E09093AC018093AB01089583
:1014B000EF92FF920F931F93DF93CF930F92CDB7CD
:1014C000DEB789838B017A0184E0BE016F5F7F4FB5
:1014D00041E050E00E949C0784E4B801A7010E940B
:1014E0009C070F90CF91DF911F910F91FF90EF908C
:1014F000089582E048E050E00E94580A0895FC01F7
:1015000016821782108611861286138614823496EC
:10151000BF010E94790A0895DC01683810F068580C
:1015200029C0E62FF0E067FF13C0E058F04081E0EB
:1015300090E002C0880F991FEA95E2F78095149613
:101540002C911497282314962C93149760E012C0C2
:10155000EB5AFD4F6491662319F420E030E01DC082
:1015600067FF08C014968C9114978D7F14968C9306
:1015700014976F77FD0190E0662321F0868186172E
:1015800009F416829F5F31969630B1F7CD0114961B
:10159000BD010E94790A21E030E0C9010895CF938E
:1015A000DF93DC01683810F0685825C0E62FF0E0C2
:1015B00067FF12C0E058F04081E090E002C0880F61
:1015C000991FEA95E2F714962C911497282B1496FC
:1015D0002C93149760E00FC0EB5AFD4F6491662383
:1015E000D9F167FF08C014968C9114978260149605
:1015F0008C9314976F7716968C9116978617A9F18E
:1016000017968C911797861781F118968C911897D9
:10161000861759F119968C911997861731F11A96F8
:101620008C911A97861709F11B968C911B97861738
:10163000E1F0ED01E0E0F0E09E2F8E81882321F4BF
:10164000EA0FFB1F668306C09F5F31962196E63046
:10165000F10591F7963049F481E090E013969C9360
:101660008E93129720E030E007C0CD011496BD01A3
:101670000E94790A21E030E0C901DF91CF910895FD
:1016800080E867ED71E045E650E00E941707089595
:10169000FC0180818F5F808380E86CE372E049E128
:1016A00050E00E9417070895629FD001739FF001D8
:1016B000829FE00DF11D649FE00DF11D929FF00DE2
:1016C000839FF00D749FF00D659FF00D9927729F19
:1016D000B00DE11DF91F639FB00DE11DF91FBD01A4
:1016E000CF0111240895A1E21A2EAA1BBB1BFD01F4
:1016F0000DC0AA1FBB1FEE1FFF1FA217B307E407F1
:10170000F50720F0A21BB30BE40BF50B661F771F48
:10171000881F991F1A9469F7609570958095909528
:101720009B01AC01BD01CF010895EE0FFF1F059095
:0A173000F491E02D0994F894FFCF26
:10173A003000310041726475696E6F50726F4D6985
:10174A0063726F2056302E312E300000E100000007
:10175A0000000001010000000009055003A804CFA1
:10176A0004B60431053505000000002D0A5003CFE8
:06177A000A8C0A7F0A0040
:00000001FF
